{
  "contractName": "DappToken",
  "abi": [
    {
      "constant": true,
      "inputs": [],
      "name": "totalSupply",
      "outputs": [
        {
          "name": "",
          "type": "uint256"
        }
      ],
      "payable": false,
      "stateMutability": "view",
      "type": "function"
    },
    {
      "inputs": [],
      "payable": false,
      "stateMutability": "nonpayable",
      "type": "constructor"
    }
  ],
  "bytecode": "0x6080604052348015600f57600080fd5b50620f4240600081905550607b806100286000396000f3fe6080604052348015600f57600080fd5b506004361060285760003560e01c806318160ddd14602d575b600080fd5b60336049565b6040518082815260200191505060405180910390f35b6000548156fea165627a7a723058203179284343aeb70f7b312b8fda7dd2c49be96b96f9c95a55e8d9468b6a5108580029",
  "source": "pragma solidity >=0.4.21 <0.6.0;\r\n\r\ncontract DappToken {\r\n\t// Constructor\r\n\t// Set the total number tokens\r\n\t// Read total number of tokens\r\n\tuint256 public totalSupply;\r\n\tconstructor () public {\r\n\t\ttotalSupply = 1000000;\r\n\t}\r\n}\r\n",
  "sourcePath": "C:/Users/benja/Google Drive/Quest/Crypto/onchain gov/development/token_sale/contracts/DappToken.sol",
  "compiler": {
    "name": "solc",
    "version": "0.5.8+commit.23d335f2.Emscripten.clang"
  },
  "schemaVersion": "3.0.10",
  "updatedAt": "2019-06-11T09:31:44.225Z",
  "devdoc": {
    "methods": {}
  },
  "userdoc": {
    "methods": {}
  }
}